{
  "contractName": "ShoeTracer",
  "abi": [
    {
      "anonymous": false,
      "inputs": [],
      "name": "addedTravel",
      "type": "event"
    },
    {
      "anonymous": false,
      "inputs": [],
      "name": "createdShoe",
      "type": "event"
    },
    {
      "constant": true,
      "inputs": [
        {
          "internalType": "uint256",
          "name": "",
          "type": "uint256"
        }
      ],
      "name": "qrcodes",
      "outputs": [
        {
          "internalType": "string",
          "name": "",
          "type": "string"
        }
      ],
      "payable": false,
      "stateMutability": "view",
      "type": "function"
    },
    {
      "constant": true,
      "inputs": [],
      "name": "qrcodesCount",
      "outputs": [
        {
          "internalType": "uint256",
          "name": "",
          "type": "uint256"
        }
      ],
      "payable": false,
      "stateMutability": "view",
      "type": "function"
    },
    {
      "constant": false,
      "inputs": [
        {
          "internalType": "string",
          "name": "_modelNo",
          "type": "string"
        },
        {
          "internalType": "string",
          "name": "_modelName",
          "type": "string"
        },
        {
          "internalType": "uint256",
          "name": "_quantity",
          "type": "uint256"
        },
        {
          "internalType": "string",
          "name": "_color",
          "type": "string"
        },
        {
          "internalType": "uint256",
          "name": "_price",
          "type": "uint256"
        },
        {
          "internalType": "string",
          "name": "_manufacturedBy",
          "type": "string"
        },
        {
          "internalType": "string",
          "name": "_location",
          "type": "string"
        },
        {
          "internalType": "uint256",
          "name": "_timestamp",
          "type": "uint256"
        },
        {
          "internalType": "string",
          "name": "_qrCode",
          "type": "string"
        }
      ],
      "name": "createShoe",
      "outputs": [],
      "payable": false,
      "stateMutability": "nonpayable",
      "type": "function"
    },
    {
      "constant": false,
      "inputs": [
        {
          "internalType": "string",
          "name": "_location",
          "type": "string"
        },
        {
          "internalType": "uint256",
          "name": "_timestamp",
          "type": "uint256"
        },
        {
          "internalType": "string",
          "name": "_qrCode",
          "type": "string"
        }
      ],
      "name": "addTravel",
      "outputs": [],
      "payable": false,
      "stateMutability": "nonpayable",
      "type": "function"
    },
    {
      "constant": true,
      "inputs": [
        {
          "internalType": "string",
          "name": "_qrCode",
          "type": "string"
        }
      ],
      "name": "listShoe",
      "outputs": [
        {
          "components": [
            {
              "internalType": "string",
              "name": "modelNo",
              "type": "string"
            },
            {
              "internalType": "string",
              "name": "modelName",
              "type": "string"
            },
            {
              "internalType": "uint256",
              "name": "quantity",
              "type": "uint256"
            },
            {
              "internalType": "string",
              "name": "color",
              "type": "string"
            },
            {
              "internalType": "uint256",
              "name": "price",
              "type": "uint256"
            },
            {
              "internalType": "string",
              "name": "manufactuedBy",
              "type": "string"
            },
            {
              "components": [
                {
                  "internalType": "string",
                  "name": "location",
                  "type": "string"
                },
                {
                  "internalType": "uint256",
                  "name": "timestamp",
                  "type": "uint256"
                }
              ],
              "internalType": "struct ShoeTracer.travel[]",
              "name": "travelHistory",
              "type": "tuple[]"
            }
          ],
          "internalType": "struct ShoeTracer.shoe",
          "name": "",
          "type": "tuple"
        }
      ],
      "payable": false,
      "stateMutability": "view",
      "type": "function"
    }
  ],
  "bytecode": "0x608060405234801561001057600080fd5b506110c5806100206000396000f3fe608060405234801561001057600080fd5b50600436106100575760003560e01c8063536dd4cb1461005c5780637c9e414814610078578063c69c7eab146100a8578063d570693f146100c6578063fefb2672146100f6575b600080fd5b61007660048036036100719190810190610bdc565b610112565b005b610092600480360361008d9190810190610a45565b6101d1565b60405161009f9190610efc565b60405180910390f35b6100b06105b0565b6040516100bd9190610f1e565b60405180910390f35b6100e060048036036100db9190810190610c5b565b6105b6565b6040516100ed9190610eda565b60405180910390f35b610110600480360361010b9190810190610a86565b61066f565b005b60006002826040516101249190610ec3565b908152602001604051809103902060020154141561014157600080fd5b6002816040516101519190610ec3565b90815260200160405180910390206006016040518060400160405280858152602001848152509080600181540180825580915050906001820390600052602060002090600202016000909192909190915060008201518160000190805190602001906101be92919061087a565b5060208201518160010155505050505050565b6101d96108fa565b6002826040516101e99190610ec3565b90815260200160405180910390206040518060e0016040529081600082018054600181600116156101000203166002900480601f01602080910402602001604051908101604052809291908181526020018280546001816001161561010002031660029004801561029b5780601f106102705761010080835404028352916020019161029b565b820191906000526020600020905b81548152906001019060200180831161027e57829003601f168201915b50505050508152602001600182018054600181600116156101000203166002900480601f01602080910402602001604051908101604052809291908181526020018280546001816001161561010002031660029004801561033d5780601f106103125761010080835404028352916020019161033d565b820191906000526020600020905b81548152906001019060200180831161032057829003601f168201915b5050505050815260200160028201548152602001600382018054600181600116156101000203166002900480601f0160208091040260200160405190810160405280929190818152602001828054600181600116156101000203166002900480156103e95780601f106103be576101008083540402835291602001916103e9565b820191906000526020600020905b8154815290600101906020018083116103cc57829003601f168201915b5050505050815260200160048201548152602001600582018054600181600116156101000203166002900480601f0160208091040260200160405190810160405280929190818152602001828054600181600116156101000203166002900480156104955780601f1061046a57610100808354040283529160200191610495565b820191906000526020600020905b81548152906001019060200180831161047857829003601f168201915b5050505050815260200160068201805480602002602001604051908101604052809291908181526020016000905b828210156105a15783829060005260206000209060020201604051806040016040529081600082018054600181600116156101000203166002900480601f01602080910402602001604051908101604052809291908181526020018280546001816001161561010002031660029004801561057f5780601f106105545761010080835404028352916020019161057f565b820191906000526020600020905b81548152906001019060200180831161056257829003601f168201915b50505050508152602001600182015481525050815260200190600101906104c3565b50505050815250509050919050565b60015481565b600081815481106105c357fe5b906000526020600020016000915090508054600181600116156101000203166002900480601f0160208091040260200160405190810160405280929190818152602001828054600181600116156101000203166002900480156106675780601f1061063c57610100808354040283529160200191610667565b820191906000526020600020905b81548152906001019060200180831161064a57829003601f168201915b505050505081565b886002826040516106809190610ec3565b908152602001604051809103902060000190805190602001906106a4929190610937565b50876002826040516106b69190610ec3565b908152602001604051809103902060010190805190602001906106da929190610937565b50866002826040516106ec9190610ec3565b908152602001604051809103902060020181905550856002826040516107129190610ec3565b90815260200160405180910390206003019080519060200190610736929190610937565b50846002826040516107489190610ec3565b9081526020016040518091039020600401819055508360028260405161076e9190610ec3565b90815260200160405180910390206005019080519060200190610792929190610937565b506002816040516107a39190610ec3565b908152602001604051809103902060060160405180604001604052808581526020018481525090806001815401808255809150509060018203906000526020600020906002020160009091929091909150600082015181600001908051906020019061081092919061087a565b5060208201518160010155505050600081908060018154018082558091505090600182039060005260206000200160009091929091909150908051906020019061085b929190610937565b5050600160008154809291906001019190505550505050505050505050565b828054600181600116156101000203166002900490600052602060002090601f016020900481019282601f106108bb57805160ff19168380011785556108e9565b828001600101855582156108e9579182015b828111156108e85782518255916020019190600101906108cd565b5b5090506108f691906109b7565b5090565b6040518060e00160405280606081526020016060815260200160008152602001606081526020016000815260200160608152602001606081525090565b828054600181600116156101000203166002900490600052602060002090601f016020900481019282601f1061097857805160ff19168380011785556109a6565b828001600101855582156109a6579182015b828111156109a557825182559160200191906001019061098a565b5b5090506109b391906109b7565b5090565b6109d991905b808211156109d55760008160009055506001016109bd565b5090565b90565b600082601f8301126109ed57600080fd5b8135610a006109fb82610f66565b610f39565b91508082526020830160208301858383011115610a1c57600080fd5b610a27838284611018565b50505092915050565b600081359050610a3f8161106b565b92915050565b600060208284031215610a5757600080fd5b600082013567ffffffffffffffff811115610a7157600080fd5b610a7d848285016109dc565b91505092915050565b60008060008060008060008060006101208a8c031215610aa557600080fd5b60008a013567ffffffffffffffff811115610abf57600080fd5b610acb8c828d016109dc565b99505060208a013567ffffffffffffffff811115610ae857600080fd5b610af48c828d016109dc565b9850506040610b058c828d01610a30565b97505060608a013567ffffffffffffffff811115610b2257600080fd5b610b2e8c828d016109dc565b9650506080610b3f8c828d01610a30565b95505060a08a013567ffffffffffffffff811115610b5c57600080fd5b610b688c828d016109dc565b94505060c08a013567ffffffffffffffff811115610b8557600080fd5b610b918c828d016109dc565b93505060e0610ba28c828d01610a30565b9250506101008a013567ffffffffffffffff811115610bc057600080fd5b610bcc8c828d016109dc565b9150509295985092959850929598565b600080600060608486031215610bf157600080fd5b600084013567ffffffffffffffff811115610c0b57600080fd5b610c17868287016109dc565b9350506020610c2886828701610a30565b925050604084013567ffffffffffffffff811115610c4557600080fd5b610c51868287016109dc565b9150509250925092565b600060208284031215610c6d57600080fd5b6000610c7b84828501610a30565b91505092915050565b6000610c908383610e68565b905092915050565b6000610ca382610fa2565b610cad8185610fd0565b935083602082028501610cbf85610f92565b8060005b85811015610cfb5784840389528151610cdc8582610c84565b9450610ce783610fc3565b925060208a01995050600181019050610cc3565b50829750879550505050505092915050565b6000610d1882610fb8565b610d228185611003565b9350610d32818560208601611027565b80840191505092915050565b6000610d4982610fad565b610d538185610fe1565b9350610d63818560208601611027565b610d6c8161105a565b840191505092915050565b6000610d8282610fad565b610d8c8185610ff2565b9350610d9c818560208601611027565b610da58161105a565b840191505092915050565b600060e0830160008301518482036000860152610dcd8282610d3e565b91505060208301518482036020860152610de78282610d3e565b9150506040830151610dfc6040860182610ea5565b5060608301518482036060860152610e148282610d3e565b9150506080830151610e296080860182610ea5565b5060a083015184820360a0860152610e418282610d3e565b91505060c083015184820360c0860152610e5b8282610c98565b9150508091505092915050565b60006040830160008301518482036000860152610e858282610d3e565b9150506020830151610e9a6020860182610ea5565b508091505092915050565b610eae8161100e565b82525050565b610ebd8161100e565b82525050565b6000610ecf8284610d0d565b915081905092915050565b60006020820190508181036000830152610ef48184610d77565b905092915050565b60006020820190508181036000830152610f168184610db0565b905092915050565b6000602082019050610f336000830184610eb4565b92915050565b6000604051905081810181811067ffffffffffffffff82111715610f5c57600080fd5b8060405250919050565b600067ffffffffffffffff821115610f7d57600080fd5b601f19601f8301169050602081019050919050565b6000819050602082019050919050565b600081519050919050565b600081519050919050565b600081519050919050565b6000602082019050919050565b600082825260208201905092915050565b600082825260208201905092915050565b600082825260208201905092915050565b600081905092915050565b6000819050919050565b82818337600083830152505050565b60005b8381101561104557808201518184015260208101905061102a565b83811115611054576000848401525b50505050565b6000601f19601f8301169050919050565b6110748161100e565b811461107f57600080fd5b5056fea365627a7a72315820f06e62dc76c0af7940f4434491e1d8b970b6f983f8d569fff7f3ab027d199e306c6578706572696d656e74616cf564736f6c63430005100040",
  "source": "//SPDX-License-Identifier:none\r\npragma solidity >=0.5.16;\r\npragma experimental ABIEncoderV2;\r\ncontract ShoeTracer {\r\n    struct travel {\r\n        string location;\r\n        uint timestamp;\r\n    }\r\n    struct shoe {\r\n        string modelNo;\r\n        string modelName;        \r\n        uint quantity;\r\n        string color;\r\n        uint price;   \r\n        string manufactuedBy;     \r\n        travel[] travelHistory;\r\n    }\r\n\r\n    string[] public qrcodes;\r\n    uint public qrcodesCount;\r\n        \r\n    event createdShoe();\r\n    event addedTravel();\r\n\r\n    mapping(string => shoe) selectedShoe;    \r\n\r\n    function createShoe(string memory _modelNo,string memory _modelName,uint _quantity,string memory _color,uint _price,string memory _manufacturedBy,string memory _location,uint _timestamp,string memory _qrCode) public {\r\n        selectedShoe[_qrCode].modelNo = _modelNo;\r\n        selectedShoe[_qrCode].modelName = _modelName;        \r\n        selectedShoe[_qrCode].quantity = _quantity; \r\n        selectedShoe[_qrCode].color = _color;\r\n        selectedShoe[_qrCode].price = _price;\r\n        selectedShoe[_qrCode].manufactuedBy = _manufacturedBy;\r\n        selectedShoe[_qrCode].travelHistory.push(travel(_location,_timestamp));  \r\n        qrcodes.push(_qrCode);\r\n        qrcodesCount++;\r\n    }\r\n    function addTravel(string memory _location,uint _timestamp,string memory _qrCode) public { \r\n        require(selectedShoe[_qrCode].quantity != 0);       \r\n        selectedShoe[_qrCode].travelHistory.push(travel(_location,_timestamp));\r\n    }\r\n    function listShoe(string memory _qrCode) public view returns(shoe memory){\r\n        return selectedShoe[_qrCode];\r\n    }    \r\n}\r\n",
  "sourcePath": "E:/Blockchain/ShoeTracer/src/contracts/ShoeTracer.sol",
  "compiler": {
    "name": "solc",
    "version": "0.5.16+commit.9c3226ce.Emscripten.clang"
  },
  "schemaVersion": "3.3.4",
  "updatedAt": "2021-03-29T17:03:54.524Z",
  "networkType": "ethereum",
  "devdoc": {
    "methods": {}
  },
  "userdoc": {
    "methods": {}
  }
}